{
  "contractName": "SupplyChain",
  "abi": [
    {
      "constant": false,
      "inputs": [
        {
          "name": "account",
          "type": "address"
        }
      ],
      "name": "addConsumer",
      "outputs": [],
      "payable": false,
      "stateMutability": "nonpayable",
      "type": "function"
    },
    {
      "constant": true,
      "inputs": [
        {
          "name": "account",
          "type": "address"
        }
      ],
      "name": "isRetailer",
      "outputs": [
        {
          "name": "",
          "type": "bool"
        }
      ],
      "payable": false,
      "stateMutability": "view",
      "type": "function"
    },
    {
      "constant": false,
      "inputs": [],
      "name": "renounceConsumer",
      "outputs": [],
      "payable": false,
      "stateMutability": "nonpayable",
      "type": "function"
    },
    {
      "constant": false,
      "inputs": [],
      "name": "renounceDistributor",
      "outputs": [],
      "payable": false,
      "stateMutability": "nonpayable",
      "type": "function"
    },
    {
      "constant": false,
      "inputs": [
        {
          "name": "account",
          "type": "address"
        }
      ],
      "name": "addDistributor",
      "outputs": [],
      "payable": false,
      "stateMutability": "nonpayable",
      "type": "function"
    },
    {
      "constant": false,
      "inputs": [
        {
          "name": "account",
          "type": "address"
        }
      ],
      "name": "addFarmer",
      "outputs": [],
      "payable": false,
      "stateMutability": "nonpayable",
      "type": "function"
    },
    {
      "constant": false,
      "inputs": [],
      "name": "renounceFarmer",
      "outputs": [],
      "payable": false,
      "stateMutability": "nonpayable",
      "type": "function"
    },
    {
      "constant": true,
      "inputs": [
        {
          "name": "account",
          "type": "address"
        }
      ],
      "name": "isConsumer",
      "outputs": [
        {
          "name": "",
          "type": "bool"
        }
      ],
      "payable": false,
      "stateMutability": "view",
      "type": "function"
    },
    {
      "constant": false,
      "inputs": [
        {
          "name": "account",
          "type": "address"
        }
      ],
      "name": "addRetailer",
      "outputs": [],
      "payable": false,
      "stateMutability": "nonpayable",
      "type": "function"
    },
    {
      "constant": true,
      "inputs": [
        {
          "name": "account",
          "type": "address"
        }
      ],
      "name": "isDistributor",
      "outputs": [
        {
          "name": "",
          "type": "bool"
        }
      ],
      "payable": false,
      "stateMutability": "view",
      "type": "function"
    },
    {
      "constant": true,
      "inputs": [
        {
          "name": "account",
          "type": "address"
        }
      ],
      "name": "isFarmer",
      "outputs": [
        {
          "name": "",
          "type": "bool"
        }
      ],
      "payable": false,
      "stateMutability": "view",
      "type": "function"
    },
    {
      "constant": false,
      "inputs": [],
      "name": "renounceRetailer",
      "outputs": [],
      "payable": false,
      "stateMutability": "nonpayable",
      "type": "function"
    },
    {
      "inputs": [],
      "payable": true,
      "stateMutability": "payable",
      "type": "constructor"
    },
    {
      "anonymous": false,
      "inputs": [
        {
          "indexed": false,
          "name": "upc",
          "type": "uint256"
        }
      ],
      "name": "Harvested",
      "type": "event"
    },
    {
      "anonymous": false,
      "inputs": [
        {
          "indexed": false,
          "name": "upc",
          "type": "uint256"
        }
      ],
      "name": "Processed",
      "type": "event"
    },
    {
      "anonymous": false,
      "inputs": [
        {
          "indexed": false,
          "name": "upc",
          "type": "uint256"
        }
      ],
      "name": "Packed",
      "type": "event"
    },
    {
      "anonymous": false,
      "inputs": [
        {
          "indexed": false,
          "name": "upc",
          "type": "uint256"
        }
      ],
      "name": "ForSale",
      "type": "event"
    },
    {
      "anonymous": false,
      "inputs": [
        {
          "indexed": false,
          "name": "upc",
          "type": "uint256"
        }
      ],
      "name": "Sold",
      "type": "event"
    },
    {
      "anonymous": false,
      "inputs": [
        {
          "indexed": false,
          "name": "upc",
          "type": "uint256"
        }
      ],
      "name": "Shipped",
      "type": "event"
    },
    {
      "anonymous": false,
      "inputs": [
        {
          "indexed": false,
          "name": "upc",
          "type": "uint256"
        }
      ],
      "name": "Received",
      "type": "event"
    },
    {
      "anonymous": false,
      "inputs": [
        {
          "indexed": false,
          "name": "upc",
          "type": "uint256"
        }
      ],
      "name": "Purchased",
      "type": "event"
    },
    {
      "anonymous": false,
      "inputs": [
        {
          "indexed": true,
          "name": "account",
          "type": "address"
        }
      ],
      "name": "ConsumerAdded",
      "type": "event"
    },
    {
      "anonymous": false,
      "inputs": [
        {
          "indexed": true,
          "name": "account",
          "type": "address"
        }
      ],
      "name": "ConsumerRemoved",
      "type": "event"
    },
    {
      "anonymous": false,
      "inputs": [
        {
          "indexed": true,
          "name": "account",
          "type": "address"
        }
      ],
      "name": "RetailerAdded",
      "type": "event"
    },
    {
      "anonymous": false,
      "inputs": [
        {
          "indexed": true,
          "name": "account",
          "type": "address"
        }
      ],
      "name": "RetailerRemoved",
      "type": "event"
    },
    {
      "anonymous": false,
      "inputs": [
        {
          "indexed": true,
          "name": "account",
          "type": "address"
        }
      ],
      "name": "DistributorAdded",
      "type": "event"
    },
    {
      "anonymous": false,
      "inputs": [
        {
          "indexed": true,
          "name": "account",
          "type": "address"
        }
      ],
      "name": "DistributorRemoved",
      "type": "event"
    },
    {
      "anonymous": false,
      "inputs": [
        {
          "indexed": true,
          "name": "account",
          "type": "address"
        }
      ],
      "name": "FarmerAdded",
      "type": "event"
    },
    {
      "anonymous": false,
      "inputs": [
        {
          "indexed": true,
          "name": "account",
          "type": "address"
        }
      ],
      "name": "FarmerRemoved",
      "type": "event"
    },
    {
      "constant": false,
      "inputs": [],
      "name": "kill",
      "outputs": [],
      "payable": false,
      "stateMutability": "nonpayable",
      "type": "function"
    },
    {
      "constant": false,
      "inputs": [
        {
          "name": "_upc",
          "type": "uint256"
        },
        {
          "name": "_originFarmerID",
          "type": "address"
        },
        {
          "name": "_originFarmName",
          "type": "string"
        },
        {
          "name": "_originFarmInformation",
          "type": "string"
        },
        {
          "name": "_originFarmLatitude",
          "type": "string"
        },
        {
          "name": "_originFarmLongitude",
          "type": "string"
        },
        {
          "name": "_productNotes",
          "type": "string"
        }
      ],
      "name": "harvestItem",
      "outputs": [],
      "payable": false,
      "stateMutability": "nonpayable",
      "type": "function"
    },
    {
      "constant": false,
      "inputs": [
        {
          "name": "_upc",
          "type": "uint256"
        }
      ],
      "name": "processItem",
      "outputs": [],
      "payable": false,
      "stateMutability": "nonpayable",
      "type": "function"
    },
    {
      "constant": false,
      "inputs": [
        {
          "name": "_upc",
          "type": "uint256"
        }
      ],
      "name": "packItem",
      "outputs": [],
      "payable": false,
      "stateMutability": "nonpayable",
      "type": "function"
    },
    {
      "constant": false,
      "inputs": [
        {
          "name": "_upc",
          "type": "uint256"
        },
        {
          "name": "_price",
          "type": "uint256"
        }
      ],
      "name": "sellItem",
      "outputs": [],
      "payable": false,
      "stateMutability": "nonpayable",
      "type": "function"
    },
    {
      "constant": false,
      "inputs": [
        {
          "name": "_upc",
          "type": "uint256"
        }
      ],
      "name": "buyItem",
      "outputs": [],
      "payable": true,
      "stateMutability": "payable",
      "type": "function"
    },
    {
      "constant": false,
      "inputs": [
        {
          "name": "_upc",
          "type": "uint256"
        }
      ],
      "name": "shipItem",
      "outputs": [],
      "payable": false,
      "stateMutability": "nonpayable",
      "type": "function"
    },
    {
      "constant": false,
      "inputs": [
        {
          "name": "_upc",
          "type": "uint256"
        }
      ],
      "name": "receiveItem",
      "outputs": [],
      "payable": false,
      "stateMutability": "nonpayable",
      "type": "function"
    },
    {
      "constant": false,
      "inputs": [
        {
          "name": "_upc",
          "type": "uint256"
        }
      ],
      "name": "purchaseItem",
      "outputs": [],
      "payable": false,
      "stateMutability": "nonpayable",
      "type": "function"
    },
    {
      "constant": true,
      "inputs": [
        {
          "name": "_upc",
          "type": "uint256"
        }
      ],
      "name": "fetchItemBufferOne",
      "outputs": [
        {
          "name": "itemSKU",
          "type": "uint256"
        },
        {
          "name": "itemUPC",
          "type": "uint256"
        },
        {
          "name": "ownerID",
          "type": "address"
        },
        {
          "name": "originFarmerID",
          "type": "address"
        },
        {
          "name": "originFarmName",
          "type": "string"
        },
        {
          "name": "originFarmInformation",
          "type": "string"
        },
        {
          "name": "originFarmLatitude",
          "type": "string"
        },
        {
          "name": "originFarmLongitude",
          "type": "string"
        }
      ],
      "payable": false,
      "stateMutability": "view",
      "type": "function"
    },
    {
      "constant": true,
      "inputs": [
        {
          "name": "_upc",
          "type": "uint256"
        }
      ],
      "name": "fetchItemBufferTwo",
      "outputs": [
        {
          "name": "itemSKU",
          "type": "uint256"
        },
        {
          "name": "itemUPC",
          "type": "uint256"
        },
        {
          "name": "productID",
          "type": "uint256"
        },
        {
          "name": "productNotes",
          "type": "string"
        },
        {
          "name": "productPrice",
          "type": "uint256"
        },
        {
          "name": "itemState",
          "type": "uint256"
        },
        {
          "name": "distributorID",
          "type": "address"
        },
        {
          "name": "retailerID",
          "type": "address"
        },
        {
          "name": "consumerID",
          "type": "address"
        }
      ],
      "payable": false,
      "stateMutability": "view",
      "type": "function"
    },
    {
      "constant": true,
      "inputs": [
        {
          "name": "_upc",
          "type": "uint256"
        }
      ],
      "name": "fetchImageIpfsHash",
      "outputs": [
        {
          "name": "imageIpfsHash",
          "type": "string"
        }
      ],
      "payable": false,
      "stateMutability": "view",
      "type": "function"
    }
  ],
  "bytecode": "0x60806040526200001e33620000c3640100000000026401000000009004565b62000038336200012d640100000000026401000000009004565b620000523362000197640100000000026401000000009004565b6200006c3362000201640100000000026401000000009004565b33600460006101000a81548173ffffffffffffffffffffffffffffffffffffffff021916908373ffffffffffffffffffffffffffffffffffffffff16021790555060016006819055506001600581905550620003c3565b620000e78160006200026b6401000000000262002c67179091906401000000009004565b8073ffffffffffffffffffffffffffffffffffffffff167f2e0ded4123377a3c2bc9a26f1717655a129e2f20752924d42e730ec89c83dbd060405160405180910390a250565b620001518160016200026b6401000000000262002c67179091906401000000009004565b8073ffffffffffffffffffffffffffffffffffffffff167fddbf200aa634dc3fb81cfd68583dd1040d1c751d335e1d86b631bde3e977fea860405160405180910390a250565b620001bb8160026200026b6401000000000262002c67179091906401000000009004565b8073ffffffffffffffffffffffffffffffffffffffff167f71ae26cad02663e3d92efd6ec56031a80d74a20c0ab4183faa8bf262261c9baa60405160405180910390a250565b620002258160036200026b6401000000000262002c67179091906401000000009004565b8073ffffffffffffffffffffffffffffffffffffffff167f28b26e7a3d20aedbc5f8f2ebf7da671c0491723a2b78f47a097b0e46dee0714260405160405180910390a250565b600073ffffffffffffffffffffffffffffffffffffffff168173ffffffffffffffffffffffffffffffffffffffff1614151515620002a857600080fd5b620002c382826200032e640100000000026401000000009004565b151515620002d057600080fd5b60018260000160008373ffffffffffffffffffffffffffffffffffffffff1673ffffffffffffffffffffffffffffffffffffffff16815260200190815260200160002060006101000a81548160ff0219169083151502179055505050565b60008073ffffffffffffffffffffffffffffffffffffffff168273ffffffffffffffffffffffffffffffffffffffff16141515156200036c57600080fd5b8260000160008373ffffffffffffffffffffffffffffffffffffffff1673ffffffffffffffffffffffffffffffffffffffff16815260200190815260200160002060009054906101000a900460ff16905092915050565b612f8e80620003d36000396000f30060806040526004361061013e576000357c0100000000000000000000000000000000000000000000000000000000900463ffffffff168063112940f9146101435780632d9235611461018657806341c0e1b5146101bd57806349dae766146101d45780635da09b881461020157806361e6982d1461025c578063644241db1461027357806366225ff91461028a5780637250e224146103ec57806377c459131461042f57806380c3f96d1461068d57806380fc0ce4146106d0578063834ff739146106e75780638ec4f505146107425780638f0c86fa14610785578063a26be999146107e0578063b94290691461080d578063bdd8a6a814610868578063c74753f614610a13578063d38ea5bf14610ab9578063db0e6a2f14610ae6578063e7fb74c714610afd578063f30fc48014610b1d578063f61c899a14610b4a575b600080fd5b34801561014f57600080fd5b50610184600480360381019080803573ffffffffffffffffffffffffffffffffffffffff169060200190929190505050610b77565b005b34801561019257600080fd5b506101bb6004803603810190808035906020019092919080359060200190929190505050610b97565b005b3480156101c957600080fd5b506101d2610ded565b005b3480156101e057600080fd5b506101ff60048036038101908080359060200190929190505050610e80565b005b34801561020d57600080fd5b50610242600480360381019080803573ffffffffffffffffffffffffffffffffffffffff169060200190929190505050610fdf565b604051808215151515815260200191505060405180910390f35b34801561026857600080fd5b50610271610ffc565b005b34801561027f57600080fd5b50610288611007565b005b34801561029657600080fd5b506102b560048036038101908080359060200190929190505050611012565b604051808a8152602001898152602001888152602001806020018781526020018681526020018573ffffffffffffffffffffffffffffffffffffffff1673ffffffffffffffffffffffffffffffffffffffff1681526020018473ffffffffffffffffffffffffffffffffffffffff1673ffffffffffffffffffffffffffffffffffffffff1681526020018373ffffffffffffffffffffffffffffffffffffffff1673ffffffffffffffffffffffffffffffffffffffff168152602001828103825288818151815260200191508051906020019080838360005b838110156103a957808201518184015260208101905061038e565b50505050905090810190601f1680156103d65780820380516001836020036101000a031916815260200191505b509a505050505050505050505060405180910390f35b3480156103f857600080fd5b5061042d600480360381019080803573ffffffffffffffffffffffffffffffffffffffff16906020019092919050505061123a565b005b34801561043b57600080fd5b5061045a6004803603810190808035906020019092919050505061125a565b604051808981526020018881526020018773ffffffffffffffffffffffffffffffffffffffff1673ffffffffffffffffffffffffffffffffffffffff1681526020018673ffffffffffffffffffffffffffffffffffffffff1673ffffffffffffffffffffffffffffffffffffffff16815260200180602001806020018060200180602001858103855289818151815260200191508051906020019080838360005b838110156105165780820151818401526020810190506104fb565b50505050905090810190601f1680156105435780820380516001836020036101000a031916815260200191505b50858103845288818151815260200191508051906020019080838360005b8381101561057c578082015181840152602081019050610561565b50505050905090810190601f1680156105a95780820380516001836020036101000a031916815260200191505b50858103835287818151815260200191508051906020019080838360005b838110156105e25780820151818401526020810190506105c7565b50505050905090810190601f16801561060f5780820380516001836020036101000a031916815260200191505b50858103825286818151815260200191508051906020019080838360005b8381101561064857808201518184015260208101905061062d565b50505050905090810190601f1680156106755780820380516001836020036101000a031916815260200191505b509c5050505050505050505050505060405180910390f35b34801561069957600080fd5b506106ce600480360381019080803573ffffffffffffffffffffffffffffffffffffffff1690602001909291905050506115f1565b005b3480156106dc57600080fd5b506106e5611611565b005b3480156106f357600080fd5b50610728600480360381019080803573ffffffffffffffffffffffffffffffffffffffff16906020019092919050505061161c565b604051808215151515815260200191505060405180910390f35b34801561074e57600080fd5b50610783600480360381019080803573ffffffffffffffffffffffffffffffffffffffff169060200190929190505050611639565b005b34801561079157600080fd5b506107c6600480360381019080803573ffffffffffffffffffffffffffffffffffffffff169060200190929190505050611659565b604051808215151515815260200191505060405180910390f35b3480156107ec57600080fd5b5061080b60048036038101908080359060200190929190505050611675565b005b34801561081957600080fd5b5061084e600480360381019080803573ffffffffffffffffffffffffffffffffffffffff169060200190929190505050611923565b604051808215151515815260200191505060405180910390f35b34801561087457600080fd5b50610a1160048036038101908080359060200190929190803573ffffffffffffffffffffffffffffffffffffffff169060200190929190803590602001908201803590602001908080601f0160208091040260200160405190810160405280939291908181526020018383808284378201915050505050509192919290803590602001908201803590602001908080601f0160208091040260200160405190810160405280939291908181526020018383808284378201915050505050509192919290803590602001908201803590602001908080601f0160208091040260200160405190810160405280939291908181526020018383808284378201915050505050509192919290803590602001908201803590602001908080601f0160208091040260200160405190810160405280939291908181526020018383808284378201915050505050509192919290803590602001908201803590602001908080601f0160208091040260200160405190810160405280939291908181526020018383808284378201915050505050509192919290505050611940565b005b348015610a1f57600080fd5b50610a3e60048036038101908080359060200190929190505050611d2b565b6040518080602001828103825283818151815260200191508051906020019080838360005b83811015610a7e578082015181840152602081019050610a63565b50505050905090810190601f168015610aab5780820380516001836020036101000a031916815260200191505b509250505060405180910390f35b348015610ac557600080fd5b50610ae460048036038101908080359060200190929190505050611de3565b005b348015610af257600080fd5b50610afb612090565b005b610b1b6004803603810190808035906020019092919050505061209b565b005b348015610b2957600080fd5b50610b4860048036038101908080359060200190929190505050612469565b005b348015610b5657600080fd5b50610b75600480360381019080803590602001909291905050506126c9565b005b610b803361161c565b1515610b8b57600080fd5b610b9481612903565b50565b610ba033611923565b1515610bab57600080fd5b8160026007811115610bb957fe5b60076000838152602001908152602001600020600b0160009054906101000a900460ff166007811115610be857fe5b141515610c5d576040517f08c379a000000000000000000000000000000000000000000000000000000000815260040180806020018281038252601e8152602001807f546865206974656d207374617465206973206e6f7420275061636b656427000081525060200191505060405180910390fd5b6007600084815260200190815260200160002060020160009054906101000a900473ffffffffffffffffffffffffffffffffffffffff168073ffffffffffffffffffffffffffffffffffffffff163373ffffffffffffffffffffffffffffffffffffffff16141515610d5d576040517f08c379a00000000000000000000000000000000000000000000000000000000081526004018080602001828103825260338152602001807f596f7520617265206e6f7420616c6c6f77656420746f20646f2074686174206681526020017f6f7220616e6f746865722061646472657373210000000000000000000000000081525060400191505060405180910390fd5b600360076000868152602001908152602001600020600b0160006101000a81548160ff02191690836007811115610d9057fe5b02179055508260076000868152602001908152602001600020600a01819055507fa96ae0fc3224ebd79eebfe54bd130cc9cb94416cddd1f2386115e00b72532468846040518082815260200191505060405180910390a150505050565b600460009054906101000a900473ffffffffffffffffffffffffffffffffffffffff1673ffffffffffffffffffffffffffffffffffffffff163373ffffffffffffffffffffffffffffffffffffffff161415610e7e57600460009054906101000a900473ffffffffffffffffffffffffffffffffffffffff1673ffffffffffffffffffffffffffffffffffffffff16ff5b565b610e8933611923565b1515610e9457600080fd5b8060006007811115610ea257fe5b60076000838152602001908152602001600020600b0160009054906101000a900460ff166007811115610ed157fe5b141515610f6c576040517f08c379a00000000000000000000000000000000000000000000000000000000081526004018080602001828103825260218152602001807f546865206974656d207374617465206973206e6f74202748617276657374656481526020017f270000000000000000000000000000000000000000000000000000000000000081525060400191505060405180910390fd5b600160076000848152602001908152602001600020600b0160006101000a81548160ff02191690836007811115610f9f57fe5b02179055507f5afe3b1bf87069693c075da5c22a98d63d1aef98a30dbbe538d0781a98b77ee5826040518082815260200191505060405180910390a15050565b6000610ff582600261295d90919063ffffffff16565b9050919050565b611005336129f1565b565b61101033612a4b565b565b600080600060606000806000806000600760008b8152602001908152602001600020600001549850600760008b8152602001908152602001600020600101549750600760008b8152602001908152602001600020600801549650600760008b81526020019081526020016000206009018054600181600116156101000203166002900480601f0160208091040260200160405190810160405280929190818152602001828054600181600116156101000203166002900480156111165780601f106110eb57610100808354040283529160200191611116565b820191906000526020600020905b8154815290600101906020018083116110f957829003601f168201915b50505050509550600760008b8152602001908152602001600020600a01549450600760008b8152602001908152602001600020600b0160009054906101000a900460ff16600781111561116557fe5b9350600760008b8152602001908152602001600020600b0160019054906101000a900473ffffffffffffffffffffffffffffffffffffffff169250600760008b8152602001908152602001600020600c0160009054906101000a900473ffffffffffffffffffffffffffffffffffffffff169150600760008b8152602001908152602001600020600d0160009054906101000a900473ffffffffffffffffffffffffffffffffffffffff1690508888888888888888889850985098509850985098509850985098509193959799909294969850565b61124333611659565b151561124e57600080fd5b61125781612aa5565b50565b600080600080606080606080600760008a8152602001908152602001600020600001549750600760008a8152602001908152602001600020600101549650600760008a815260200190815260200160002060020160009054906101000a900473ffffffffffffffffffffffffffffffffffffffff169550600760008a815260200190815260200160002060030160009054906101000a900473ffffffffffffffffffffffffffffffffffffffff169450600760008a81526020019081526020016000206004018054600181600116156101000203166002900480601f0160208091040260200160405190810160405280929190818152602001828054600181600116156101000203166002900480156113b45780601f10611389576101008083540402835291602001916113b4565b820191906000526020600020905b81548152906001019060200180831161139757829003601f168201915b50505050509350600760008a81526020019081526020016000206005018054600181600116156101000203166002900480601f0160208091040260200160405190810160405280929190818152602001828054600181600116156101000203166002900480156114655780601f1061143a57610100808354040283529160200191611465565b820191906000526020600020905b81548152906001019060200180831161144857829003601f168201915b50505050509250600760008a81526020019081526020016000206006018054600181600116156101000203166002900480601f0160208091040260200160405190810160405280929190818152602001828054600181600116156101000203166002900480156115165780601f106114eb57610100808354040283529160200191611516565b820191906000526020600020905b8154815290600101906020018083116114f957829003601f168201915b50505050509150600760008a81526020019081526020016000206007018054600181600116156101000203166002900480601f0160208091040260200160405190810160405280929190818152602001828054600181600116156101000203166002900480156115c75780601f1061159c576101008083540402835291602001916115c7565b820191906000526020600020905b8154815290600101906020018083116115aa57829003601f168201915b50505050509050878787878787878797509750975097509750975097509750919395975091939597565b6115fa33611923565b151561160557600080fd5b61160e81612aff565b50565b61161a33612b59565b565b600061163282600361295d90919063ffffffff16565b9050919050565b61164233610fdf565b151561164d57600080fd5b61165681612bb3565b50565b600061166f82600161295d90919063ffffffff16565b50919050565b61167e33610fdf565b151561168957600080fd5b806005600781111561169757fe5b60076000838152602001908152602001600020600b0160009054906101000a900460ff1660078111156116c657fe5b14151561173b576040517f08c379a000000000000000000000000000000000000000000000000000000000815260040180806020018281038252601f8152602001807f546865206974656d207374617465206973206e6f74202753686970706564270081525060200191505060405180910390fd5b338073ffffffffffffffffffffffffffffffffffffffff163373ffffffffffffffffffffffffffffffffffffffff16141515611805576040517f08c379a00000000000000000000000000000000000000000000000000000000081526004018080602001828103825260338152602001807f596f7520617265206e6f7420616c6c6f77656420746f20646f2074686174206681526020017f6f7220616e6f746865722061646472657373210000000000000000000000000081525060400191505060405180910390fd5b336007600085815260200190815260200160002060020160006101000a81548173ffffffffffffffffffffffffffffffffffffffff021916908373ffffffffffffffffffffffffffffffffffffffff1602179055503360076000858152602001908152602001600020600c0160006101000a81548173ffffffffffffffffffffffffffffffffffffffff021916908373ffffffffffffffffffffffffffffffffffffffff160217905550600660076000858152602001908152602001600020600b0160006101000a81548160ff021916908360078111156118e257fe5b02179055507fa8142743f8f70a4c26f3691cf4ed59718381fb2f18070ec52be1f1022d855557836040518082815260200191505060405180910390a1505050565b600061193982600061295d90919063ffffffff16565b9050919050565b611948612dc6565b61195133611923565b151561195c57600080fd5b6102006040519081016040528060065481526020018981526020018873ffffffffffffffffffffffffffffffffffffffff1681526020018873ffffffffffffffffffffffffffffffffffffffff1681526020018781526020018681526020018581526020018481526020016006548a01815260200183815260200160008152602001600060078111156119eb57fe5b8152602001600073ffffffffffffffffffffffffffffffffffffffff168152602001600073ffffffffffffffffffffffffffffffffffffffff168152602001600073ffffffffffffffffffffffffffffffffffffffff1681526020016020604051908101604052806000815250815250905080600760008a8152602001908152602001600020600082015181600001556020820151816001015560408201518160020160006101000a81548173ffffffffffffffffffffffffffffffffffffffff021916908373ffffffffffffffffffffffffffffffffffffffff16021790555060608201518160030160006101000a81548173ffffffffffffffffffffffffffffffffffffffff021916908373ffffffffffffffffffffffffffffffffffffffff1602179055506080820151816004019080519060200190611b2f929190612ebd565b5060a0820151816005019080519060200190611b4c929190612ebd565b5060c0820151816006019080519060200190611b69929190612ebd565b5060e0820151816007019080519060200190611b86929190612ebd565b506101008201518160080155610120820151816009019080519060200190611baf929190612ebd565b5061014082015181600a015561016082015181600b0160006101000a81548160ff02191690836007811115611be057fe5b021790555061018082015181600b0160016101000a81548173ffffffffffffffffffffffffffffffffffffffff021916908373ffffffffffffffffffffffffffffffffffffffff1602179055506101a082015181600c0160006101000a81548173ffffffffffffffffffffffffffffffffffffffff021916908373ffffffffffffffffffffffffffffffffffffffff1602179055506101c082015181600d0160006101000a81548173ffffffffffffffffffffffffffffffffffffffff021916908373ffffffffffffffffffffffffffffffffffffffff1602179055506101e082015181600e019080519060200190611cda929190612ebd565b509050506001600654016006819055507f8e55ccfc9778ff8eba1646d765cf1982537ce0f9257054a17b48aad745250183886040518082815260200191505060405180910390a15050505050505050565b606060076000838152602001908152602001600020600e018054600181600116156101000203166002900480601f016020809104026020016040519081016040528092919081815260200182805460018160011615610100020316600290048015611dd75780601f10611dac57610100808354040283529160200191611dd7565b820191906000526020600020905b815481529060010190602001808311611dba57829003601f168201915b50505050509050919050565b611dec3361161c565b1515611df757600080fd5b8060066007811115611e0557fe5b60076000838152602001908152602001600020600b0160009054906101000a900460ff166007811115611e3457fe5b141515611ea9576040517f08c379a00000000000000000000000000000000000000000000000000000000081526004018080602001828103825260208152602001807f546865206974656d207374617465206973206e6f74202752656365697665642781525060200191505060405180910390fd5b338073ffffffffffffffffffffffffffffffffffffffff163373ffffffffffffffffffffffffffffffffffffffff16141515611f73576040517f08c379a00000000000000000000000000000000000000000000000000000000081526004018080602001828103825260338152602001807f596f7520617265206e6f7420616c6c6f77656420746f20646f2074686174206681526020017f6f7220616e6f746865722061646472657373210000000000000000000000000081525060400191505060405180910390fd5b336007600085815260200190815260200160002060020160006101000a81548173ffffffffffffffffffffffffffffffffffffffff021916908373ffffffffffffffffffffffffffffffffffffffff1602179055503360076000858152602001908152602001600020600d0160006101000a81548173ffffffffffffffffffffffffffffffffffffffff021916908373ffffffffffffffffffffffffffffffffffffffff1602179055506007806000858152602001908152602001600020600b0160006101000a81548160ff0219169083600781111561204f57fe5b02179055507f653d56639fee6b566a5c804764e9689de38645f0b733df89a36a1b7b42173dd8836040518082815260200191505060405180910390a1505050565b61209933612c0d565b565b6120a433611659565b15156120af57600080fd5b80600360078111156120bd57fe5b60076000838152602001908152602001600020600b0160009054906101000a900460ff1660078111156120ec57fe5b141515612161576040517f08c379a000000000000000000000000000000000000000000000000000000000815260040180806020018281038252601f8152602001807f546865206974656d207374617465206973206e6f742027466f7253616c65270081525060200191505060405180910390fd5b60076000838152602001908152602001600020600a0154803410151515612216576040517f08c379a00000000000000000000000000000000000000000000000000000000081526004018080602001828103825260358152602001807f546865207061696420616d6f756e74206973206e6f742073756666696369656e81526020017f7420746f20636f7665722074686520707269636521000000000000000000000081525060400191505060405180910390fd5b82600080336007600088815260200190815260200160002060020160006101000a81548173ffffffffffffffffffffffffffffffffffffffff021916908373ffffffffffffffffffffffffffffffffffffffff1602179055503360076000888152602001908152602001600020600b0160016101000a81548173ffffffffffffffffffffffffffffffffffffffff021916908373ffffffffffffffffffffffffffffffffffffffff160217905550600460076000888152602001908152602001600020600b0160006101000a81548160ff021916908360078111156122f757fe5b02179055506007600087815260200190815260200160002060030160009054906101000a900473ffffffffffffffffffffffffffffffffffffffff1673ffffffffffffffffffffffffffffffffffffffff166108fc60076000898152602001908152602001600020600a01549081150290604051600060405180830381858888f1935050505015801561238e573d6000803e3d6000fd5b507f92f64ca637d023f354075a4be751b169c1a8a9ccb6d33cdd0cb3520543995727866040518082815260200191505060405180910390a160076000848152602001908152602001600020600a01549150813403905060076000848152602001908152602001600020600d0160009054906101000a900473ffffffffffffffffffffffffffffffffffffffff1673ffffffffffffffffffffffffffffffffffffffff166108fc829081150290604051600060405180830381858888f19350505050158015612460573d6000803e3d6000fd5b50505050505050565b61247233611923565b151561247d57600080fd5b806001600781111561248b57fe5b60076000838152602001908152602001600020600b0160009054906101000a900460ff1660078111156124ba57fe5b141515612555576040517f08c379a00000000000000000000000000000000000000000000000000000000081526004018080602001828103825260218152602001807f546865206974656d207374617465206973206e6f74202750726f63657373656481526020017f270000000000000000000000000000000000000000000000000000000000000081525060400191505060405180910390fd5b6007600083815260200190815260200160002060030160009054906101000a900473ffffffffffffffffffffffffffffffffffffffff168073ffffffffffffffffffffffffffffffffffffffff163373ffffffffffffffffffffffffffffffffffffffff16141515612655576040517f08c379a00000000000000000000000000000000000000000000000000000000081526004018080602001828103825260338152602001807f596f7520617265206e6f7420616c6c6f77656420746f20646f2074686174206681526020017f6f7220616e6f746865722061646472657373210000000000000000000000000081525060400191505060405180910390fd5b600260076000858152602001908152602001600020600b0160006101000a81548160ff0219169083600781111561268857fe5b02179055507f9b3b66e2380b690bae22c73ef1428fb0c91e72fe14a4b6defa13035214187aff836040518082815260200191505060405180910390a1505050565b6126d233611659565b15156126dd57600080fd5b80600460078111156126eb57fe5b60076000838152602001908152602001600020600b0160009054906101000a900460ff16600781111561271a57fe5b14151561278f576040517f08c379a000000000000000000000000000000000000000000000000000000000815260040180806020018281038252601c8152602001807f546865206974656d207374617465206973206e6f742027536f6c64270000000081525060200191505060405180910390fd5b60076000838152602001908152602001600020600b0160019054906101000a900473ffffffffffffffffffffffffffffffffffffffff168073ffffffffffffffffffffffffffffffffffffffff163373ffffffffffffffffffffffffffffffffffffffff1614151561288f576040517f08c379a00000000000000000000000000000000000000000000000000000000081526004018080602001828103825260338152602001807f596f7520617265206e6f7420616c6c6f77656420746f20646f2074686174206681526020017f6f7220616e6f746865722061646472657373210000000000000000000000000081525060400191505060405180910390fd5b600560076000858152602001908152602001600020600b0160006101000a81548160ff021916908360078111156128c257fe5b02179055507ff00b9a5725b80c54016f42114f6ed7792d22eecb116011c4afac29c57bef6c95836040518082815260200191505060405180910390a1505050565b612917816003612c6790919063ffffffff16565b8073ffffffffffffffffffffffffffffffffffffffff167f28b26e7a3d20aedbc5f8f2ebf7da671c0491723a2b78f47a097b0e46dee0714260405160405180910390a250565b60008073ffffffffffffffffffffffffffffffffffffffff168273ffffffffffffffffffffffffffffffffffffffff161415151561299a57600080fd5b8260000160008373ffffffffffffffffffffffffffffffffffffffff1673ffffffffffffffffffffffffffffffffffffffff16815260200190815260200160002060009054906101000a900460ff16905092915050565b612a05816003612d1790919063ffffffff16565b8073ffffffffffffffffffffffffffffffffffffffff167fe3f5ed5f263f1f01764a96edfc7d025f511ec5f7d180e8816908b78bcf74f09860405160405180910390a250565b612a5f816001612d1790919063ffffffff16565b8073ffffffffffffffffffffffffffffffffffffffff167f126174f6cf49c81cdb4a9214c6b8f037bef55b4ec31e4fc776cea2a1c8a88d5960405160405180910390a250565b612ab9816001612c6790919063ffffffff16565b8073ffffffffffffffffffffffffffffffffffffffff167fddbf200aa634dc3fb81cfd68583dd1040d1c751d335e1d86b631bde3e977fea860405160405180910390a250565b612b13816000612c6790919063ffffffff16565b8073ffffffffffffffffffffffffffffffffffffffff167f2e0ded4123377a3c2bc9a26f1717655a129e2f20752924d42e730ec89c83dbd060405160405180910390a250565b612b6d816000612d1790919063ffffffff16565b8073ffffffffffffffffffffffffffffffffffffffff167fa5e0f060af304ab17dd418c7927e3da3ae7868189bf387aee09ab179ccc572f260405160405180910390a250565b612bc7816002612c6790919063ffffffff16565b8073ffffffffffffffffffffffffffffffffffffffff167f71ae26cad02663e3d92efd6ec56031a80d74a20c0ab4183faa8bf262261c9baa60405160405180910390a250565b612c21816002612d1790919063ffffffff16565b8073ffffffffffffffffffffffffffffffffffffffff167fdb7176e79cffef81cb01767dd0447a0b24bb72ca9778d4b245581086b2a7e6db60405160405180910390a250565b600073ffffffffffffffffffffffffffffffffffffffff168173ffffffffffffffffffffffffffffffffffffffff1614151515612ca357600080fd5b612cad828261295d565b151515612cb957600080fd5b60018260000160008373ffffffffffffffffffffffffffffffffffffffff1673ffffffffffffffffffffffffffffffffffffffff16815260200190815260200160002060006101000a81548160ff0219169083151502179055505050565b600073ffffffffffffffffffffffffffffffffffffffff168173ffffffffffffffffffffffffffffffffffffffff1614151515612d5357600080fd5b612d5d828261295d565b1515612d6857600080fd5b60008260000160008373ffffffffffffffffffffffffffffffffffffffff1673ffffffffffffffffffffffffffffffffffffffff16815260200190815260200160002060006101000a81548160ff0219169083151502179055505050565b610200604051908101604052806000815260200160008152602001600073ffffffffffffffffffffffffffffffffffffffff168152602001600073ffffffffffffffffffffffffffffffffffffffff1681526020016060815260200160608152602001606081526020016060815260200160008152602001606081526020016000815260200160006007811115612e5957fe5b8152602001600073ffffffffffffffffffffffffffffffffffffffff168152602001600073ffffffffffffffffffffffffffffffffffffffff168152602001600073ffffffffffffffffffffffffffffffffffffffff168152602001606081525090565b828054600181600116156101000203166002900490600052602060002090601f016020900481019282601f10612efe57805160ff1916838001178555612f2c565b82800160010185558215612f2c579182015b82811115612f2b578251825591602001919060010190612f10565b5b509050612f399190612f3d565b5090565b612f5f91905b80821115612f5b576000816000905550600101612f43565b5090565b905600a165627a7a723058207514a3557ac3b1de54a9fa8123bca0091cd6d9422c4ffd3956d8e451574995140029",
  "source": "// pragma solidity ^0.4.24;\n\n// import \"../coffeeaccesscontrol/FarmerRole.sol\";\n// import \"../coffeeaccesscontrol/DistributorRole.sol\";\n// import \"../coffeeaccesscontrol/RetailerRole.sol\";\n// import \"../coffeeaccesscontrol/ConsumerRole.sol\";\n// import \"../coffeecore/Ownable.sol\";\n\n\n// // Define a contract 'Supplychain'\n// contract SupplyChain is  DistributorRole, RetailerRole, ConsumerRole, FarmerRole {\n\n//   // Define 'owner'\n//   address  owner;\n\n//   // Define a variable called 'upc' for Universal Product Code (UPC)\n//   uint  upc;\n\n//   // Define a variable called 'sku' for Stock Keeping Unit (SKU)\n//   uint  sku;\n\n//   // Define a public mapping 'items' that maps the UPC to an Item.\n//   mapping (uint => Item) items;\n\n//   // Define a public mapping 'itemsHistory' that maps the UPC to an array of TxHash, \n//   // that track its journey through the supply chain -- to be sent from DApp.\n//   mapping (uint => string[]) itemsHistory;\n  \n//   // Define enum 'State' with the following values:\n//   enum State \n//   { \n//     Harvested,  // 0\n//     Processed,  // 1\n//     Packed,     // 2\n//     ForSale,    // 3\n//     Sold,       // 4\n//     Shipped,    // 5\n//     Received,   // 6\n//     Purchased   // 7\n//     }\n\n//   State constant defaultState = State.Harvested;\n\n//   // Define a struct 'Item' with the following fields:\n//   struct Item {\n//     uint    sku;  // Stock Keeping Unit (SKU)\n//     uint    upc; // Universal Product Code (UPC), generated by the Farmer, goes on the package, can be verified by the Consumer\n//     address ownerID;  // Metamask-Ethereum address of the current owner as the product moves through 8 stages\n//     address originFarmerID; // Metamask-Ethereum address of the Farmer\n//     string  originFarmName; // Farmer Name\n//     string  originFarmInformation;  // Farmer Information\n//     string  originFarmLatitude; // Farm Latitude\n//     string  originFarmLongitude;  // Farm Longitude\n//     uint    productID;  // Product ID potentially a combination of upc + sku\n//     string  productNotes; // Product Notes\n//     uint    productPrice; // Product Price\n//     State   itemState;  // Product State as represented in the enum above\n//     address distributorID;  // Metamask-Ethereum address of the Distributor\n//     address retailerID; // Metamask-Ethereum address of the Retailer\n//     address consumerID; // Metamask-Ethereum address of the Consumer\n//   }\n\n//   // Define 8 events with the same 8 state values and accept 'upc' as input argument\n//   event Harvested(uint upc);\n//   event Processed(uint upc);\n//   event Packed(uint upc);\n//   event ForSale(uint upc);\n//   event Sold(uint upc);\n//   event Shipped(uint upc);\n//   event Received(uint upc);\n//   event Purchased(uint upc);\n\n//   // Define a modifer that checks to see if msg.sender == owner of the contract\n//   modifier onlyOwner() {\n//     require(msg.sender == owner);\n//     _;\n//   }\n\n//   // Define a modifer that verifies the Caller\n//   modifier verifyCaller (address _address) {\n//     require(msg.sender == _address); \n//     _;\n//   }\n\n//   // Define a modifier that checks if the paid amount is sufficient to cover the price\n//   modifier paidEnough(uint _price) { \n//     require(msg.value >= _price); \n//     _;\n//   }\n  \n//   // Define a modifier that checks the price and refunds the remaining balance\n//   modifier checkValue(uint _upc)  {\n//     _;\n//     uint _price = items[_upc].productPrice;\n//     uint amountToReturn = msg.value - _price;\n//     items[_upc].consumerID.transfer(amountToReturn);\n//   }\n\n//   // Define a modifier that checks if an item.state of a upc is Harvested\n//   modifier harvested(uint _upc) {\n//     require(items[_upc].itemState == State.Harvested);\n//     _;\n//   }\n\n//   // Define a modifier that checks if an item.state of a upc is Processed\n//   modifier processed(uint _upc) {\n//      require(items[_upc].itemState == State.Processed);\n//     _;\n//   }\n  \n//   // Define a modifier that checks if an item.state of a upc is Packed\n//   modifier packed(uint _upc) {\n//    require(items[_upc].itemState == State.Packed);\n//     _;\n//   }\n\n//   // Define a modifier that checks if an item.state of a upc is ForSale\n//   modifier forSale(uint _upc) {\n//    require(items[_upc].itemState == State.ForSale);\n//     _;\n//   }\n\n//   // Define a modifier that checks if an item.state of a upc is Sold\n//   modifier sold(uint _upc) {\n//     require(items[_upc].itemState == State.Sold);\n//     _;\n//   }\n  \n//   // Define a modifier that checks if an item.state of a upc is Shipped\n//   modifier shipped(uint _upc) {\n//      require(items[_upc].itemState == State.Shipped);\n//     _;\n//   }\n\n//   // Define a modifier that checks if an item.state of a upc is Received\n//   modifier received(uint _upc) {\n//       require(items[_upc].itemState == State.Received);\n//     _;\n//   }\n\n//   // Define a modifier that checks if an item.state of a upc is Purchased\n//   modifier purchased(uint _upc) {\n//       require(items[_upc].itemState == State.Purchased);\n//     _;\n//   }\n\n//   // In the constructor set 'owner' to the address that instantiated the contract\n//   // and set 'sku' to 1\n//   // and set 'upc' to 1\n//   constructor() public payable {\n//     owner = msg.sender;\n//     sku = 1;\n//     upc = 1;\n//   }\n\n//   // Define a function 'kill' if required\n//   function kill() public {\n//     if (msg.sender == owner) {\n//       selfdestruct(owner);\n//     }\n//   }\n\n//   // Define a function 'harvestItem' that allows a farmer to mark an item 'Harvested'\n//   function harvestItem(uint _upc, address _originFarmerID, string _originFarmName,\n//    string _originFarmInformation, string  _originFarmLatitude, uint _price,\n//     string  _originFarmLongitude, string  _productNotes) public \n//     onlyFarmer\n//   {\n    \n//     // Add the new item as part of Harvest\n//     Item memory newItem = Item({\n//     sku: sku, \n//     upc: _upc,\n//     ownerID: owner,  \n//     originFarmerID: _originFarmerID,\n//     originFarmName: _originFarmName,\n//     originFarmInformation: _originFarmInformation,\n//     originFarmLatitude: _originFarmLatitude,\n//     originFarmLongitude: _originFarmLongitude,\n//     productID: sku + _upc ,\n//     productNotes: _productNotes,\n//     productPrice: _price,\n//     itemState: defaultState, \n//     distributorID: 0,\n//     retailerID: 0,\n//     consumerID: 0\n//     });\n\n//     items[_upc] = newItem;\n//     // Increment sku\n//     sku = sku + 1;\n//     // Emit the appropriate event\n//     emit Harvested(_upc);\n//   }\n\n//   // Define a function 'processtItem' that allows a farmer to mark an item 'Processed'\n//   // Call modifier to check if upc has passed previous supply chain stage\n  \n//   // Call modifier to verify caller of this function\n//   function processItem(uint _upc) public \n//   onlyFarmer\n//   harvested(_upc) \n//   verifyCaller(items[_upc].originFarmerID)\n  \n//   {\n//     // Update the appropriate fields\n//        items[_upc].itemState = State.Processed; \n//     // Emit the appropriate event\n//       emit Processed(_upc);\n//   }\n\n//   // Define a function 'packItem' that allows a farmer to mark an item 'Packed'\n//    // Call modifier to check if upc has passed previous supply chain stage\n  \n//   // Call modifier to verify caller of this function\n//   function packItem(uint _upc) public processed(_upc)\n//   onlyFarmer\n  \n//   {\n//     // Update the appropriate fields\n//        items[_upc].itemState = State.Packed; \n//     // Emit the appropriate event\n//        emit Packed(_upc);\n//   }\n\n//   // Define a function 'sellItem' that allows a farmer to mark an item 'ForSale'\n//    // Call modifier to check if upc has passed previous supply chain stage\n  \n//   // Call modifier to verify caller of this function\n//   function sellItem(uint _upc, uint _price) public\n//    onlyFarmer\n//    packed(_upc)\n  \n//   {\n//     // Update the appropriate fields\n//     items[_upc].itemState = State.ForSale;\n//     items[_upc].productPrice = _price;\n//     // Emit the appropriate event\n//      emit ForSale(_upc);\n//   }\n\n\n//   // Define a function 'buyItem' that allows the disributor to mark an item 'Sold'\n//   // Use the above defined modifiers to check if the item is available for sale, if the buyer has paid enough, \n//   // and any excess ether sent is refunded back to the buyer\n//    // Call modifier to check if upc has passed previous supply chain stage\n    \n//     // Call modifer to check if buyer has paid enough\n    \n//     // Call modifer to send any excess ether back to buyer\n//   function buyItem(uint _upc) public payable \n  \n \n//    forSale(_upc) \n//    paidEnough(items[_upc].productPrice)\n//    checkValue(_upc)\n \n   \n//     {\n    \n//     // Update the appropriate fields - ownerID, distributorID, itemState\n//        items[_upc].ownerID = msg.sender;\n//         items[_upc].distributorID = msg.sender;\n//         items[_upc].itemState = State.Sold;\n\n//     // Transfer money to farmer\n//     items[_upc].originFarmerID.transfer(items[_upc].productPrice);\n\n//     // emit the appropriate event\n//     emit Sold(_upc);\n    \n//   }\n\n//   // Define a function 'shipItem' that allows the distributor to mark an item 'Shipped'\n//   // Use the above modifers to check if the item is sold\n//    // Call modifier to check if upc has passed previous supply chain stage\n    \n//     // Call modifier to verify caller of this function\n\n//   function shipItem(uint _upc) public\n//       onlyDistributor \n//       sold(_upc) \n//     {\n//     // Update the appropriate fields\n//      items[_upc].itemState = State.Shipped;\n    \n//     // Emit the appropriate event\n//     emit Shipped(_upc);\n//   }\n\n//   // Define a function 'receiveItem' that allows the retailer to mark an item 'Received'\n//   // Use the above modifiers to check if the item is shipped\n//   // Call modifier to check if upc has passed previous supply chain stage\n    \n//     // Access Control List enforced by calling Smart Contract / DApp\n//   function receiveItem(uint _upc) public \n//     onlyRetailer\n//     shipped(_upc)\n\n//     {\n//     // Update the appropriate fields - ownerID, retailerID, itemState\n//         items[_upc].ownerID = msg.sender;\n//         items[_upc].retailerID = msg.sender;\n//         items[_upc].itemState = State.Received;\n\n//     // Emit the appropriate event\n//       emit Received(_upc);\n    \n//   }\n\n//   // Define a function 'purchaseItem' that allows the consumer to mark an item 'Purchased'\n//   // Use the above modifiers to check if the item is received\n//   // Call modifier to check if upc has passed previous supply chain stage\n    \n//   // Access Control List enforced by calling Smart Contract / DApp\n\n//   function purchaseItem(uint _upc) public \n//    onlyConsumer\n//    received(_upc)\n//    {\n//     // Update the appropriate fields - ownerID, consumerID, itemState\n//         items[_upc].ownerID = msg.sender;\n//         items[_upc].consumerID = msg.sender;\n//         items[_upc].itemState = State.Purchased;\n\n    \n//     // Emit the appropriate event\n//      emit Purchased(_upc);\n//   }\n\n//   // Define a function 'fetchItemBufferOne' that fetches the data\n//   function fetchItemBufferOne(uint _upc) public view returns \n//   (\n//   uint    itemSKU,\n//   uint    itemUPC,\n//   address ownerID,\n//   address originFarmerID,\n//   string  originFarmName,\n//   string  originFarmInformation,\n//   string  originFarmLatitude,\n//   string  originFarmLongitude\n//   ) \n//   {\n//   // Assign values to the 8 parameters\n   \n//   itemSKU = items[_upc].sku;\n//   itemUPC = items[_upc].upc;\n//   ownerID = items[_upc].ownerID;\n//   originFarmerID = items[_upc].originFarmerID;\n//   originFarmName = items[_upc].originFarmName;\n//   originFarmInformation = items[_upc].originFarmInformation;\n//   originFarmLatitude = items[_upc].originFarmLatitude;\n//   originFarmLongitude = items[_upc].originFarmLongitude;  \n\n//   return\n//    (\n//     itemSKU,\n//     itemUPC,\n//     ownerID,\n//     originFarmerID,\n//     originFarmName,\n//     originFarmInformation,\n//     originFarmLatitude,\n//     originFarmLongitude\n//   );\n\n//   }\n//   // Define a function 'fetchItemBufferTwo' that fetches the data\n//   function fetchItemBufferTwo(uint _upc) public view returns \n//   (\n//   uint    itemSKU,\n//   uint    itemUPC,\n//   uint    productID,\n//   string  productNotes,\n//   uint    productPrice,\n//   State    itemState,\n//   address distributorID,\n//   address retailerID,\n//   address consumerID\n//   ) \n//   {\n//     // Assign values to the 9 parameters\n \n//   itemSKU = items[_upc].sku;\n//   itemUPC = items[_upc].upc;\n//   productID = items[_upc].productID;\n//   productNotes = items[_upc].productNotes;\n//   productPrice = items[_upc].productPrice;\n//   itemState = items[_upc].itemState;\n//   distributorID = items[_upc].distributorID;\n//   retailerID = items[_upc].retailerID;\n//   consumerID = items[_upc].consumerID;\n   \n//    return\n\n//    (\n//    itemSKU,\n//     itemUPC,\n//     productID,\n//     productNotes,\n//     productPrice,\n//     itemState,\n//     distributorID,\n//     retailerID,\n//     consumerID\n//       );\n//   }\n// }\n\npragma solidity ^0.4.24;\n// Define a contract 'Supplychain'\nimport \"../coffeeaccesscontrol/FarmerRole.sol\";\nimport \"../coffeeaccesscontrol/DistributorRole.sol\";\nimport \"../coffeeaccesscontrol/RetailerRole.sol\";\nimport \"../coffeeaccesscontrol/ConsumerRole.sol\";\ncontract SupplyChain is FarmerRole, DistributorRole, RetailerRole, ConsumerRole {\n\n  // Define 'owner'\n  address owner;\n\n  // Define a variable called 'upc' for Universal Product Code (UPC)\n  uint  upc;\n\n  // Define a variable called 'sku' for Stock Keeping Unit (SKU)\n  uint  sku;\n\n  // Define a public mapping 'items' that maps the UPC to an Item.\n  mapping (uint => Item) items;\n\n  // Define a public mapping 'itemsHistory' that maps the UPC to an array of TxHash, \n  // that track its journey through the supply chain -- to be sent from DApp.\n  mapping (uint => string[]) itemsHistory;\n  \n  // Define enum 'State' with the following values:\n  enum State \n  { \n    Harvested,  // 0\n    Processed,  // 1\n    Packed,     // 2\n    ForSale,    // 3\n    Sold,       // 4\n    Shipped,    // 5\n    Received,   // 6\n    Purchased   // 7\n    }\n\n  State constant defaultState = State.Harvested;\n\n  // Define a struct 'Item' with the following fields:\n  struct Item {\n    uint    sku;  // Stock Keeping Unit (SKU)\n    uint    upc; // Universal Product Code (UPC), generated by the Farmer, goes on the package, can be verified by the Consumer\n    address ownerID;  // Metamask-Ethereum address of the current owner as the product moves through 8 stages\n    address originFarmerID; // Metamask-Ethereum address of the Farmer\n    string  originFarmName; // Farmer Name\n    string  originFarmInformation;  // Farmer Information\n    string  originFarmLatitude; // Farm Latitude\n    string  originFarmLongitude;  // Farm Longitude\n    uint    productID;  // Product ID potentially a combination of upc + sku\n    string  productNotes; // Product Notes\n    uint    productPrice; // Product Price\n    State   itemState;  // Product State as represented in the enum above\n    address distributorID;  // Metamask-Ethereum address of the Distributor\n    address retailerID; // Metamask-Ethereum address of the Retailer\n    address consumerID; // Metamask-Ethereum address of the Consumer\n    string imageIpfsHash; // ipfs has\n  }\n\n  // Define 8 events with the same 8 state values and accept 'upc' as input argument\n  event Harvested(uint upc);\n  event Processed(uint upc);\n  event Packed(uint upc);\n  event ForSale(uint upc);\n  event Sold(uint upc);\n  event Shipped(uint upc);\n  event Received(uint upc);\n  event Purchased(uint upc);\n\n  // Define a modifer that checks to see if msg.sender == owner of the contract\n  modifier onlyOwner() {\n    require(msg.sender == owner, \"Only the owners are allowed to do that!\");\n    _;\n  }\n\n  // Define a modifer that verifies the Caller\n  modifier verifyCaller (address _address) {\n    require(msg.sender == _address, \"You are not allowed to do that for another address!\"); \n    _;\n  }\n\n  // Define a modifier that checks if the paid amount is sufficient to cover the price\n  modifier paidEnough(uint _price) { \n    require(msg.value >= _price, \"The paid amount is not sufficient to cover the price!\" ); \n    _;\n  }\n  \n  // Define a modifier that checks the price and refunds the remaining balance\n  modifier checkValue(uint _upc) {\n    _;\n    uint _price = items[_upc].productPrice;\n    uint amountToReturn = msg.value - _price;\n    items[_upc].consumerID.transfer(amountToReturn);\n\n  }\n\n  // Define a modifier that checks if an item.state of a upc is Harvested\n  modifier harvested(uint _upc) {\n    require(items[_upc].itemState == State.Harvested, \"The item state is not 'Harvested'\");\n    _;\n  }\n\n  // Define a modifier that checks if an item.state of a upc is Processed\n  modifier processed(uint _upc) {\n    require(items[_upc].itemState == State.Processed, \"The item state is not 'Processed'\");\n    _;\n  }\n  \n  // Define a modifier that checks if an item.state of a upc is Packed\n  modifier packed(uint _upc) {\n    require(items[_upc].itemState == State.Packed, \"The item state is not 'Packed'\");\n    _;\n  }\n\n  // Define a modifier that checks if an item.state of a upc is ForSale\n  modifier forSale(uint _upc) {\n    require(items[_upc].itemState == State.ForSale, \"The item state is not 'ForSale'\");\n    _;\n  }\n\n  // Define a modifier that checks if an item.state of a upc is Sold\n  modifier sold(uint _upc) {\n    require(items[_upc].itemState == State.Sold, \"The item state is not 'Sold'\");\n    _;\n  }\n  \n  // Define a modifier that checks if an item.state of a upc is Shipped\n  modifier shipped(uint _upc) {\n    require(items[_upc].itemState == State.Shipped, \"The item state is not 'Shipped'\");\n    _;\n  }\n\n  // Define a modifier that checks if an item.state of a upc is Received\n  modifier received(uint _upc) {\n    require(items[_upc].itemState == State.Received, \"The item state is not 'Received'\");\n    _;\n  }\n\n  // Define a modifier that checks if an item.state of a upc is Purchased\n  modifier purchased(uint _upc) {\n    require(items[_upc].itemState == State.Purchased, \"The item state is not 'Purchased'\");\n    _;\n  }\n\n  // In the constructor set 'owner' to the address that instantiated the contract\n  // and set 'sku' to 1\n  // and set 'upc' to 1\n  constructor() public payable {\n  \n\n    owner = msg.sender;\n    \n    sku = 1;\n    upc = 1;\n  }\n\n  // Define a function 'kill' if required\n  function kill() public {\n    if (msg.sender == owner) {\n      selfdestruct(owner);\n    }\n  }\n\n  // Define a function 'harvestItem' that allows a farmer to mark an item 'Harvested'\n  function harvestItem(uint _upc, address _originFarmerID, string _originFarmName, \n  string _originFarmInformation, string  _originFarmLatitude, string  _originFarmLongitude, string  _productNotes) public\n  \n  onlyFarmer\n  {\n    // Add the new item as part of Harvest\n    Item memory newItem = Item( sku,\n                                _upc,\n                                _originFarmerID,\n                                _originFarmerID,\n                                _originFarmName,\n                                _originFarmInformation,\n                                _originFarmLatitude,\n                                _originFarmLongitude,\n                                _upc + sku,\n                                _productNotes,\n                                0, \n                                State.Harvested,\n                                0,\n                                0,\n                                0,\n                                \"\");\n    items[_upc] = newItem;\n   \n    // Increment sku\n    sku = sku + 1;\n    // Emit the appropriate event\n    emit Harvested(_upc);\n  }\n\n  // Define a function 'processtItem' that allows a farmer to mark an item 'Processed'\n  function processItem(uint _upc) public \n  // Call modifier to verify that the caller is a Farmer\n  onlyFarmer\n  \n  harvested(_upc)\n  \n  \n  {\n    // Update the appropriate fields\n    items[_upc].itemState = State.Processed;\n    // Emit the appropriate event\n    emit Processed(_upc);\n    \n  }\n\n  // Define a function 'packItem' that allows a farmer to mark an item 'Packed'\n  function packItem(uint _upc) public \n  \n  onlyFarmer\n  \n  processed(_upc)\n  \n  verifyCaller(items[_upc].originFarmerID)\n  {\n    // Update the appropriate fields\n    items[_upc].itemState = State.Packed;\n    // Emit the appropriate event\n    emit Packed(_upc);\n  }\n\n  // Define a function 'sellItem' that allows a farmer to mark an item 'ForSale'\n  function sellItem(uint _upc, uint _price) public \n  \n  onlyFarmer\n  \n  packed(_upc)\n  \n  verifyCaller(items[_upc].ownerID)\n  {\n    // Update the appropriate fields\n    items[_upc].itemState = State.ForSale;\n    items[_upc].productPrice = _price;\n    // Emit the appropriate event\n    emit ForSale(_upc);\n  }\n\n  // Define a function 'buyItem' that allows the disributor to mark an item 'Sold'\n  // Use the above defined modifiers to check if the item is available for sale, if the buyer has paid enough, \n  // and any excess ether sent is refunded back to the buyer\n  function buyItem(uint _upc) public payable \n\n    onlyDistributor\n   \n    forSale(_upc)\n    \n    paidEnough(items[_upc].productPrice)\n    \n    checkValue(_upc)\n    {\n    \n    // Update the appropriate fields - ownerID, distributorID, itemState\n    items[_upc].ownerID = msg.sender;\n    items[_upc].distributorID = msg.sender;\n    items[_upc].itemState = State.Sold;\n\n    // Transfer money to farmer\n    items[_upc].originFarmerID.transfer(items[_upc].productPrice);\n    // emit the appropriate event\n    emit Sold(_upc);\n  }\n\n  // Define a function 'shipItem' that allows the distributor to mark an item 'Shipped'\n  // Use the above modifers to check if the item is sold\n  function shipItem(uint _upc) public \n      \n    onlyDistributor\n    \n    sold(_upc)\n  \n    verifyCaller(items[_upc].distributorID)\n    {\n    // Update the appropriate fields\n    items[_upc].itemState = State.Shipped;\n    // Emit the appropriate event\n    emit Shipped(_upc);\n    \n  }\n\n  // Define a function 'receiveItem' that allows the retailer to mark an item 'Received'\n  // Use the above modifiers to check if the item is shipped\n  function receiveItem(uint _upc) public \n    \n    onlyRetailer\n    \n    shipped(_upc)\n    \n    verifyCaller(msg.sender)\n    {\n    // Update the appropriate fields - ownerID, retailerID, itemState\n    items[_upc].ownerID = msg.sender;\n    items[_upc].retailerID = msg.sender;\n    items[_upc].itemState = State.Received;\n    // Emit the appropriate event\n    emit Received(_upc);\n  }\n\n  // Define a function 'purchaseItem' that allows the consumer to mark an item 'Purchased'\n  // Use the above modifiers to check if the item is received\n  function purchaseItem(uint _upc) public \n  \n    onlyConsumer\n    \n    received(_upc)\n    \n    verifyCaller(msg.sender)\n    {\n    // Update the appropriate fields - ownerID, consumerID, itemState\n    items[_upc].ownerID = msg.sender;\n    items[_upc].consumerID = msg.sender;\n    items[_upc].itemState = State.Purchased;\n    // Emit the appropriate event\n    emit Purchased(_upc);\n  }\n\n  // Define a function 'fetchItemBufferOne' that fetches the data\n  function fetchItemBufferOne(uint _upc) public view returns \n  (\n  uint    itemSKU,\n  uint    itemUPC,\n  address ownerID,\n  address originFarmerID,\n  string  originFarmName,\n  string  originFarmInformation,\n  string  originFarmLatitude,\n  string  originFarmLongitude\n  ) \n  {\n  // Assign values to the 8 parameters\n  itemSKU = items[_upc].sku;\n  itemUPC = items[_upc].upc;\n  ownerID = items[_upc].ownerID;\n  originFarmerID = items[_upc].originFarmerID;\n  originFarmName = items[_upc].originFarmName;\n  originFarmInformation = items[_upc].originFarmInformation;\n  originFarmLatitude = items[_upc].originFarmLatitude;\n  originFarmLongitude = items[_upc].originFarmLongitude;\n    \n  return \n  (\n  itemSKU,\n  itemUPC,\n  ownerID,\n  originFarmerID,\n  originFarmName,\n  originFarmInformation,\n  originFarmLatitude,\n  originFarmLongitude\n  \n  );\n  \n  }\n\n  // Define a function 'fetchItemBufferTwo' that fetches the data\n  function fetchItemBufferTwo(uint _upc) public view returns \n  (\n  uint    itemSKU,\n  uint    itemUPC,\n  uint    productID,\n  string  productNotes,\n  uint    productPrice,\n  uint    itemState,\n  address distributorID,\n  address retailerID,\n  address consumerID\n  ) \n  {\n    // Assign values to the 9 parameters\n  itemSKU = items[_upc].sku;\n  itemUPC = items[_upc].upc;\n  productID = items[_upc].productID;\n  productNotes = items[_upc].productNotes;\n  productPrice = items[_upc].productPrice;\n  itemState = uint256(items[_upc].itemState);\n  distributorID = items[_upc].distributorID;\n  retailerID = items[_upc].retailerID;\n  consumerID = items[_upc].consumerID;\n    \n  return \n  (\n    itemSKU,\n    itemUPC,\n    productID,\n    productNotes,\n    productPrice,\n    itemState,\n    distributorID,\n    retailerID,\n    consumerID\n  );\n  }\n\n  // Define a function 'fetchImageHash' that fetches the ipfs hash of the image\n  function fetchImageIpfsHash(uint _upc) public view returns \n  (\n  string  imageIpfsHash\n  ) \n  {\n    // Assign values to the 8 parameters\n    return items[_upc].imageIpfsHash;\n  }\n\n  \n}",
  "sourcePath": "C:\\Users\\indu\\Desktop\\projects\\blockchain-course\\nd1309-Project-6b-Example-Template-master\\nd1309-Project-6b-Example-Template-master\\contracts\\coffeebase\\SupplyChain.sol",
  "compiler": {
    "name": "solc",
    "version": "0.4.26+commit.4563c3fc.Emscripten.clang"
  },
  "schemaVersion": "2.0.3",
  "updatedAt": "2021-09-17T18:21:41.569Z"
}